:10000000B02400207D040000790400007904000081
:1000100000000000000000000000000000000000E0
:100020000000000000000000000000007904000053
:1000300000000000000000007904000079040000C6
:1000400079040000790400007904000079040000BC
:1000500079040000790400007904000079040000AC
:10006000790400007904000079040000790400009C
:10007000D10900007904000079040000790400002F
:10008000790400007904000079040000790400007C
:10009000790400007904000079040000790400006C
:1000A000790400007904000079040000790400005C
:1000B0000000000010B5064C2378002B07D1054B3B
:1000C000002B02D0044800E000BF0123237010BDC4
:1000D0003004002000000000B40E0000084B10B5F2
:1000E000002B03D00749084800E000BF0748036819
:1000F000002B00D110BD064B002BFBD09847F9E731
:100100000000000034040020B40E0000B40E000013
:100110000000000010B5064B187001211800054BB7
:100120009847054C01212000044B9847207810BDCA
:1001300074040020DD050000540400205506000072
:1001400010B5044B1870597002211800024B9847E3
:10015000012010BD74040020DD05000010B59021C1
:100160001520094CA0477E211620A047A1211F2061
:10017000A04780211C20A04701211120A0478F21EA
:100180001320A04710BDC0464101000010B501205A
:10019000024B98477F23184010BDC0461501000050
:1001A00010B50220024B98477F23184010BDC0466F
:1001B0001501000010B50320024B98473F2318405B
:1001C00010BDC0461501000010B50420024B984731
:1001D0003F23184010BDC0461501000010B5052092
:1001E000024B98471F23184010BDC0461501000060
:1001F00010B50620014B984710BDC0461501000000
:1002000010B56021054B9847C9B2054B1970197894
:10021000C9B20120034B984710BDC0462D0B00000A
:10022000AC0400204101000010B56021054B984747
:10023000C9B2054B19701978C9B20220034B98470F
:1002400010BDC0462D0B0000AB0400204101000092
:1002500010B52421054B9847C9B2054B1970197880
:10026000C9B20320034B984710BDC0462D0B0000B8
:10027000530400204101000010B507231840044B2F
:1002800018701978C9B20720024B984710BDC046B4
:10029000510400204101000010B53221054B984760
:1002A000C9B2054B19701978C9B20420034B98479D
:1002B00010BDC0462D0B00004D0400204101000080
:1002C00010B51321054B9847C9B2054B1970197821
:1002D000C9B20520034B984710BDC0462D0B000046
:1002E000940400204101000010B50100024B187079
:1002F0000620024B984710BD4C040020410100002D
:10030000F0B583B00F000092019308AB1E7809ABE3
:100310001D780AAB1C780B4B984738000A4B98475E
:1003200000980A4B98470198094B98473000094BB1
:1003300098472800084B98472000084B984703B07F
:10034000F0BDC046E9020000C102000099020000B1
:1003500079020000510200002902000001020000A1
:10036000F0B5474680B4364B9847364E30703078FB
:10037000354C000901222100344DA8473078611C1A
:100380000F2630400122A8472E239846A370304BF9
:100390009847304F38703878E11C00090122A8478F
:1003A0003878211D30400122A847434663712A4B0B
:1003B00098472A4F38703878A11D00090122A847B4
:1003C0003878E11D30400122A8472F232372244BA7
:1003D0009847244F387038782100093100090122EC
:1003E000A847387821000A3130400122A8473A2333
:1003F0009846E3721C4B98471C4F387038782100A0
:100400000C3100090122A847387821000D31304015
:100410000122A8474346A373154B9847154F3870E0
:10042000387821000F3100090122A84738782100CF
:10043000103130400122A84704BC9046F0BDC046B0
:10044000C90100004D04002098040020D5070000D9
:10045000DD01000094040020F10100004C040020A4
:10046000B501000053040020A1010000AB040020EE
:100470008D010000AC040020FEE7C04670B52E4B95
:100480002E4A9A4203D02E4B2B4A9A4204D32D4B2C
:100490002D4A9A4210D31EE02C4A294B03339B1A53
:1004A0009B0801339B000022234824498C58845028
:1004B00004329A42FAD1EAE7254A224B03339B1AC7
:1004C0009B0801339B0000221F4800211418216063
:1004D00004329A42FAD11F4AFF211F4B8B4393608B
:1004E000FD3990235B001D4AD1501D48C378032479
:1004F000A34302221343C370C3780C26B3430821DD
:100500000B43C370174B987B3025A8430500202070
:1005100028439873987BB04301439973997BA14317
:100520000A439A73104A516880230B4353600F4B60
:1005300098470F4B9847FEE700000020B40E0000DC
:1005400030040020B004002030040020040000200B
:100550003404002000ED00E00000000000700041C5
:100560000050004100480041004000410D0D0000D6
:10057000D1060000014A024B1A60704740420F004A
:1005800000000020134A116A04230B431362124B2C
:10059000196814220A431A60D968CF220A43DA6024
:1005A0005A68802149000A435A601A00D369002B17
:1005B000FCD1094A116802330B431360D369002B45
:1005C000FCD1054A518B10330B435383D369002B65
:1005D000FCD170470004004000080042F0B54746D7
:1005E00080B4D2221A4B5A621C00D13A237E1342A5
:1005F000FCD0174B5B8B5B0705D5154A5368C024AD
:10060000A40223435360002918DD0025104A28273F
:10061000012404239846C0239B029C46435DD35586
:10062000137E2342FCD0538B4646334203D053689B
:1006300066463343536001358D42EFDB044A53680D
:10064000C02189020B43536004BC9046F0BDC046F4
:1006500000080042F0B5D3221B4B5A621C00D13A6D
:10066000237E1342FCD0184B5B8B5B0705D5164AE3
:100670005368C024A40223435360134A5468134BA5
:10068000234053604E1E002E0ADD00252827022439
:10069000D35D4355137E2342FCD00135B542F7DBD1
:1006A00000290FD0084B5A688024E40222435A6084
:1006B0005A68C024A40222435A6028229B5C401836
:1006C00001380370F0BDC04600080042FFFFFBFF89
:1006D00070B584B0134B984780225201124B1A60B8
:1006E000124B9847124B9847124B9847124B98471A
:1006F000124B9847402302931F3B01930E3B0093FC
:10070000113B2122032117200D4CA0470D4E0E4D09
:100710000E4C0F4B013B002BFCD1B04711212800A0
:10072000A047F6E77505000000E100E0550700006E
:100730009907000085050000450900005D010000E3
:10074000010300006103000098040020A5090000D7
:1007500080841E0010B50F4B4820195C0122114304
:1007600019540130195C1143195427383421585455
:100770005624195D114319550134195D114319555A
:100780003B2158549331585C02435A54C739B7221D
:10079000995410BD00440041084A116A084B0B40AF
:1007A0001362084B084A5A60084A5A80084A5A801D
:1007B0001A005378DB09FCD17047C046000800409E
:1007C000FFFCFFFF000C0040000609001440000081
:1007D00017400000F0B5474680B404000D00002823
:1007E00006DA2D230B70444224B2013AD2B201350D
:1007F000042A2CD1261C4D4B9C4201DD4C4B1E88FB
:1008000034B2FA21890020004A4B984700B2C3B2A3
:100810002B70002B5FD0FF221040474C604386199D
:1008200034B230332B70002398466F1C261C434B88
:100830009C4201DD424B1E8836B2642130003D4BA4
:10084000984700B2C3B26B70002B04D10BE0032AAF
:1008500023D145E02F00FF221040643AFF3A504375
:10086000861936B205E04246002A02D020233B70AA
:1008700003E030333B70002398467D1C341C632E0C
:1008800000DD632424B20A2120002A4B984700B2DD
:10089000C3B27B70002B03D10AE0022A12D133E0ED
:1008A000FF2210400A3AFF3A5043041924B205E0EF
:1008B0004246002A02D020232B7001E030332B70F7
:1008C000013501E0012A2ED1231C092C00DD09236A
:1008D00030332B7027E020232B701F3B9846A4E772
:1008E000261C164B9C4201DD154B1E8836B2642136
:1008F0003000104B984700B2C3B22B70002BA9D127
:100900002F0001339846B1E7231C632C00DD6323DD
:100910001CB20A212000074B984700B2C3B22B70CB
:10092000002BBDD1C7E704BC9046F0BD0F270000E7
:10093000840E0000350B000018FCFFFFE7030000E9
:10094000860E0000134A116A20230B431362124BD8
:100950001A6802218A431A601A6810490A431A6009
:1009600099890F4A0A439A815A68C02189020A4329
:100970005A601A00D369002BFCD1074B04229A75E8
:100980001968023A0A431A601A00D3699B07FCD41B
:100990007047C046000400400014004204001040AC
:1009A00004C5000010B589B200290DD0040001393A
:1009B00089B201314018054A137EDB07FCD5237844
:1009C000138501348442F7D110BDC04600140042A3
:1009D0000F490B78DBB20F4A108D0F4AD0540B78B9
:1009E000DBB2D35C0D2B0AD10A000B78DBB20021FD
:1009F0000948C15411700122084B1A7007E0044ADB
:100A000013780133DBB213700022044B1A70704765
:100A1000AD040020001400425404002050040020C3
:100A2000002243088B4274D303098B425FD3030A2D
:100A30008B4244D3030B8B4228D3030C8B420DD340
:100A4000FF22090212BA030C8B4202D312120902CE
:100A500065D0030B8B4219D300E0090AC30B8B420C
:100A600001D3CB03C01A5241830B8B4201D38B03BA
:100A7000C01A5241430B8B4201D34B03C01A52415F
:100A8000030B8B4201D30B03C01A5241C30A8B42A2
:100A900001D3CB02C01A5241830A8B4201D38B028D
:100AA000C01A5241430A8B4201D34B02C01A524131
:100AB000030A8B4201D30B02C01A5241CDD2C309A3
:100AC0008B4201D3CB01C01A524183098B4201D31F
:100AD0008B01C01A524143098B4201D34B01C01A0A
:100AE000524103098B4201D30B01C01A5241C30882
:100AF0008B4201D3CB00C01A524183088B4201D3F1
:100B00008B00C01A524143088B4201D34B00C01ADC
:100B10005241411A00D20146524110467047FFE748
:100B200001B5002000F0F0F802BDC0460029F7D062
:100B300076E7704703460B437FD4002243088B427D
:100B400074D303098B425FD3030A8B4244D3030B54
:100B50008B4228D3030C8B420DD3FF22090212BA19
:100B6000030C8B4202D31212090265D0030B8B4295
:100B700019D300E0090AC30B8B4201D3CB03C01A7F
:100B80005241830B8B4201D38B03C01A5241430B5A
:100B90008B4201D34B03C01A5241030B8B4201D34A
:100BA0000B03C01A5241C30A8B4201D3CB02C01AB5
:100BB0005241830A8B4201D38B02C01A5241430A2D
:100BC0008B4201D34B02C01A5241030A8B4201D31C
:100BD0000B02C01A5241CDD2C3098B4201D3CB01C3
:100BE000C01A524183098B4201D38B01C01A524172
:100BF00043098B4201D34B01C01A524103098B4276
:100C000001D30B01C01A5241C3088B4201D3CB0060
:100C1000C01A524183088B4201D38B00C01A524143
:100C200043088B4201D34B00C01A5241411A00D2F3
:100C300001465241104670475DE0CA0F00D049425C
:100C4000031000D34042534000229C4603098B42CC
:100C50002DD3030A8B4212D3FC22890112BA030A54
:100C60008B420CD3890192118B4208D389019211D6
:100C70008B4204D389013AD0921100E08909C3095B
:100C80008B4201D3CB01C01A524183098B4201D35D
:100C90008B01C01A524143098B4201D34B01C01A48
:100CA000524103098B4201D30B01C01A5241C308C0
:100CB0008B4201D3CB00C01A524183088B4201D32F
:100CC0008B00C01A5241D9D243088B4201D34B004A
:100CD000C01A5241411A00D20146634652415B108C
:100CE000104601D34042002B00D54942704763466D
:100CF0005B1000D3404201B5002000F005F802BDB2
:100D00000029F8D016E770477047C04670B50D4E01
:100D10000D4D0024AD1BAD1005D0A300F3580134D8
:100D20009847A542F9D100F0B3F8084E084D0024C9
:100D3000AD1BAD1005D0A300F35801349847A54270
:100D4000F9D170BD9C0E00009C0E00009C0E0000AE
:100D5000A40E0000034B10B5002B02D0024800F097
:100D600005F810BD000000007D0D000010B5010069
:100D700000230022002000F01BF810BD70B5094BC5
:100D8000094CE41AA41009D0084AA518AD00ED18C2
:100D90002B68013C9847043D002CF9D100F082F803
:100DA00070BDC046B00E0000B40E0000FFFFFF3F54
:100DB000F8B544465F4656464D469B462F4BF0B429
:100DC0001C68A4235B000500E0580E009046002834
:100DD0004BD043681F2B0DDC5C1C002D21D102334E
:100DE0009B0044601E5000203CBC90469946A246A1
:100DF000AB46F8BD224B002B3CD0C820400000E0A1
:100E000000BF002836D0A42200235200A15843601E
:100E10000160A05040328350043283500124002DE1
:100E2000DDD09A0091468144424688214F467A504F
:100E3000C422520090468044424687399940126845
:100E40008A460A43944642466146116084224946D6
:100E50005F4652008F50022DC1D1020055468D329F
:100E6000FF3211680D431560B9E720004D30FF30A7
:100E7000E050AEE701204042B6E7C0468C0E0000CD
:100E8000000000000F27E7034300000008000020D7
:100E9000F8B5C046F8BC08BC9E467047550D00002A
:100EA000DD000000F8B5C046F8BC08BC9E4670479F
:040EB000B500000089
:100EB40040420F000000000000000000F402002087
:100EC4005C030020C40300200000000000000000B8
:100ED400000000000000000000000000000000000E
:100EE400000000000000000000000000880E000068
:100EF40000000000000000000000000000000000EE
:100F040000000000000000000000000000000000DD
:100F140000000000000000000000000000000000CD
:100F240000000000000000000000000000000000BD
:100F340000000000000000000000000000000000AD
:100F4400000000000000000000000000000000009D
:100F5400000000000000000000000000000000008D
:100F640001000000000000000E33CDAB34126DE62A
:100F7400ECDE05000B000000000000000000000093
:100F8400000000000000000000000000000000005D
:100F9400000000000000000000000000000000004D
:100FA400000000000000000000000000000000003D
:100FB400000000000000000000000000000000002D
:00000001FF
