:10000000782B00208D05000089050000890500007F
:1000100000000000000000000000000000000000E0
:100020000000000000000000000000008905000042
:1000300000000000000000008905000089050000A4
:100040008905000089050000890500008905000078
:100050007D14000089050000890500008905000065
:100060008905000089050000890500008905000058
:1000700009120000890500008905000089050000BB
:100080008905000089050000311100008905000084
:100090008905000089050000890500008905000028
:1000A0008905000089050000890500008905000018
:1000B0000000000010B5064C2378002B07D1054B3B
:1000C000002B02D0044800E000BF0123237010BDC4
:1000D000C00A002000000000A8190000084B10B55D
:1000E000002B03D00749084800E000BF0748036819
:1000F000002B00D110BD064B002BFBD09847F9E731
:1001000000000000C40A0020A8190000A81900007F
:100110000000000010B5074B18706922012118007B
:10012000054B9847054C692201212000044B984754
:10013000207810BD380B002091090000F00A002043
:10014000090A000010B5054B187059706922022188
:100150001800034B9847012010BDC046380B002003
:100160009109000010B5012110200C4CA04703217B
:100170001120A047E4211220A0473B211820A047CE
:10018000A1211F20A047E1211C20A0479D211F2065
:10019000A047A0212620A04710BDC0464501000071
:1001A00010B50120024B98477F23184010BDC04670
:1001B0001501000010B50220024B98477F2318401C
:1001C00010BDC0461501000010B50320024B984732
:1001D0003F23184010BDC0461501000010B5072090
:1001E000024B98470723184010BDC0461501000078
:1001F00010B50420024B98473F23184010BDC0465D
:100200001501000010B50520024B98471F23184028
:1002100010BDC0461501000010B50620014B9847DF
:1002200010BDC0461501000010B56021054B984770
:10023000C9B2054B19701978C9B20120034B984710
:1002400010BDC046D1150000750B0020450100000F
:1002500010B56021054B9847C9B2054B1970197844
:10026000C9B20220034B984710BDC046D11500000B
:10027000730B00204501000010B52421054B984761
:10028000C9B2054B19701978C9B20320034B9847BE
:1002900010BDC046D1150000ED0A00204501000048
:1002A00010B507231840044B18701978C9B20720FD
:1002B000024B984710BDC046E70A002045010000E8
:1002C00010B53221054B9847C9B2054B1970197802
:1002D000C9B20420034B984710BDC046D115000099
:1002E000E10A00204501000010B51321054B984795
:1002F000C9B2054B19701978C9B20520034B98474C
:1003000010BDC046D11500005A0B00204501000069
:1003100010B50100024B18700620024B984710BD23
:10032000E00A002045010000F0B583B00F00009204
:10033000019308AB1E7809AB1D780AAB1C780B4BF8
:10034000984738000A4B984700980A4B98470198FD
:10035000094B98473000094B98472800084B9847AD
:100360002000084B984703B0F0BDC04611030000C1
:10037000E9020000C1020000A102000079020000B1
:10038000510200002902000010B56021054B98477A
:10039000C9B2054B19701978C9B20920034B9847A7
:1003A00010BDC046D1150000710B002045010000B2
:1003B00010B56021054B9847C9B2054B19701978E3
:1003C000C9B20A20034B984710BDC046D1150000A2
:1003D000720B00204501000010B52421054B984701
:1003E000C9B2054B19701978C9B20B20034B984755
:1003F00010BDC046D1150000E50A002045010000EF
:1004000010B507231840044B18701978C9B20E2094
:10041000024B984710BDC046E40A00204501000089
:1004200010B53221054B9847C9B2054B19701978A0
:10043000C9B20C20034B984710BDC046D11500002F
:10044000EC0A00204501000010B51321054B984728
:10045000C9B2054B19701978C9B20D20034B9847E2
:1004600010BDC046D1150000580B0020450100000A
:10047000F0B5474680B4364B9847364E30703078EA
:10048000354C000901222100344DA8473078611C09
:100490000F2630400122A8472E239846A370304BE8
:1004A0009847304F38703878E11C00090122A8477E
:1004B0003878211D30400122A847434663712A4BFA
:1004C00098472A4F38703878A11D00090122A847A3
:1004D0003878E11D30400122A8472F232372244B96
:1004E0009847244F387038782100093100090122DB
:1004F000A847387821000A3130400122A8473A2322
:100500009846E3721C4B98471C4F3870387821008E
:100510000C3100090122A847387821000D31304004
:100520000122A8474346A373154B9847154F3870CF
:10053000387821000F3100090122A84738782100BE
:10054000103130400122A84704BC9046F0BDC0469F
:10055000F1010000E10A00205C0B0020550E0000B4
:10056000050200005A0B002019020000E00A0020DA
:10057000C9010000ED0A0020B5010000730B002046
:10058000A1010000750B0020FEE7C04670B52E4BA0
:100590002E4A9A4203D02E4B2B4A9A4204D32D4B1B
:1005A0002D4A9A4210D31EE02C4A294B03339B1A42
:1005B0009B0801339B000022234824498C58845017
:1005C00004329A42FAD1EAE7254A224B03339B1AB6
:1005D0009B0801339B0000221F4800211418216052
:1005E00004329A42FAD11F4AFF211F4B8B4393607A
:1005F000FD3990235B001D4AD1501D48C378032468
:10060000A34302221343C370C3780C26B3430821CB
:100610000B43C370174B987B3025A843050020205F
:1006200028439873987BB04301439973997BA14306
:100630000A439A73104A516880230B4353600F4B4F
:1006400098470F4B9847FEE700000020A8190000CC
:10065000C00A0020780B0020C00A002004000020FF
:10066000C40A002000ED00E000000000007000411E
:10067000005000410048004100400041B117000017
:10068000BD0A0000014A024B1A60704740420F0049
:100690000000002010B5044A1168044B0B401360A1
:1006A000034B984710BDC04690440041FFF7FFFF41
:1006B0005110000010B5044A1368802109010B4352
:1006C0001360024B984710BD904400415110000048
:1006D00010B5B0231843014B984710BD9506000094
:1006E00070B50400000910231843034DA8470F20DC
:1006F0002040A84770BDC0469506000070B50500B3
:100700008120024CA0472800A04770BD950600003C
:10071000F0B5474680B4184F0E233B70E220174CCB
:10072000A047174D2B688022D200904613432B60C0
:10073000C820144EB0472A68134B13402B60C820C2
:10074000B0472B68424613432B60C820B047A02017
:10075000A047C820A047A220A0472F20A0472520BF
:10076000A0473878C0B2094B98474020A047AF2037
:10077000A04704BC9046F0BD570B00209506000032
:1007800090440041C50F0000FFFBFFFFFD06000085
:10079000F0B55F4656464D464446F0B483B08B46AE
:1007A0000CA9097845182978002940D0002B3ED0A3
:1007B000D200D2B20092013BDBB20133EB180193BD
:1007C0001E4B9A461E4B99461E4B98464020D047DA
:1007D0000098C8475846C04701241B4F1B4E2B7832
:1007E000203B1B01FB18185DB0470234112CF6D1D9
:1007F0005B46581CC0B2134B98470098104B984763
:100800000024114F114E2B78203B1B01FB18185D63
:10081000B0470234122CF6D101352B78002B06D0CC
:10082000009F0837FBB20093019BAB42CED103B0CF
:100830003CBC90469946A246AB46F0BD95060000EA
:10084000E1060000D106000004000020B50600000B
:10085000F0B5474680B440200B4B984700260B4B21
:1008600098460B4F0B4D3000C0470020B8478024FE
:100870000020A847013C002CFAD10136F6B2082E20
:10088000F1D104BC9046F0BD95060000D1060000F1
:10089000E1060000B5060000F0B583B0204B1C78DF
:1008A000E4B2002C02D0022C19D834E01D4B98473A
:1008B000002700976423032200211B481B4DA847F3
:1008C0001B4E00970823042202213000A847092369
:1008D0000093013B042204213000A8471CE0154B83
:1008E0009847104B98470026009664230322002166
:1008F0000D480E4CA0470E4D0096082304220221FD
:100900002800A04709230093013B0422042128006A
:10091000A047012400E00024200003B0F0BDC04641
:10092000740B0020710400002819000091070000DA
:100930005C0B002051080000134A116A04230B438A
:100940001362124B196814220A431A60D968CF2225
:100950000A43DA605A68802149000A435A601A0043
:10096000D369002BFCD1094A116802330B43136091
:10097000D369002BFCD1054A518B10330B435383B1
:10098000D369002BFCD170470004004000080042EE
:10099000F0B5474680B452001A4B5A621C0001223F
:1009A000237E1342FCD0174B5B8B5B0705D5154AA2
:1009B0005368C024A40223435360002918DD002596
:1009C000104A2827012404239846C0239B029C46F2
:1009D000435DD355137E2342FCD0538B46463342AE
:1009E00003D0536866463343536001358D42EFDBD5
:1009F000044A5368C02189020B43536004BC9046EB
:100A0000F0BDC04600080042F0B5520001231A4371
:100A10001B4B5A621C000222237E1342FCD0184B4F
:100A20005B8B5B0705D5164A5368C024A402234399
:100A30005360134A5468134B234053604E1E002EDC
:100A40000ADD002528270224D35D4355137E234267
:100A5000FCD00135B542F7DB00290FD0084B5A68AE
:100A60008024E40222435A605A68C024A40222432C
:100A70005A6028229B5C401801380370F0BDC046C4
:100A800000080042FFFFFBFF044B802252011A6066
:100A90008022D2021A6010221A60704700E100E042
:100AA000054A802380214901D1508021C902D150BB
:100AB0001021D1507047C04600E100E0F0B585B08C
:100AC000334B9847334B9847334B9847334B9847B2
:100AD0000122334B1A701C00324E1F002378DBB208
:100AE000022B41D002D8012B05D0F7E7032B41D0D0
:100AF000042B45D0F2E700222B4B1A702B4B984762
:100B000045230293053B01931E3B009300230622DD
:100B100004211720264DA8474020264B9847264BF6
:100B20009847264B9847264B9847264B9847264B85
:100B30009847264B9847264B9847264B9847264B75
:100B40009847264B9847264B9847FA208000254B1C
:100B50009847A620244DA847A420A847234B984790
:100B600003220F4B1A70B9E7214B984703220C4B15
:100B70001A70B3E7B0470028B0D104233B70ADE74B
:100B80001C4B98471C4B98470222054B1A70A5E74F
:100B900085060000A10A00000D0E0000890A000071
:100BA000560B0020E5100000740B002065010000CA
:100BB0002903000089030000B5010000B103000013
:100BC000C9010000D9030000F10100002104000068
:100BD0000502000049040000DD01000001040000DE
:100BE00011070000C50F0000950600005108000025
:100BF000D50D0000F10D00005914000070B53E4BFA
:100C00004820195C0122114319540130195C114329
:100C100019542738342158545624195D1143195555
:100C20000134195D114319553B2158542934185981
:100C30008025AD022843185198201958294319508E
:100C40003830195C11431954B825595D022001430D
:100C5000C9B259551E35595D11435955BB215E5CCA
:100C6000D33D35435D54D7269D5D15439D555E5C50
:100C7000302535435D541959C0252D01294319519B
:100C800010341D591D49294019513E34195D114335
:100C90001955173C1D5D07212943195519688024F2
:100CA000E400214319609969802424022143996159
:100CB0004F215C5C14435C545C5C04435C545D5C9D
:100CC000042425435D543725595DC9B259554B213C
:100CD0005D5C2A435A545A5C104358545A5C14437E
:100CE0005C5416395A5CD2B25A54F823044A136041
:100CF000044A136070BDC04600440041FFFBFFFF83
:100D000008440041144400410C4A116A0C4B0B404A
:100D100013620C4B0C4A5A600C4A5A600C4A5A80B7
:100D20000C4A5A800C4A5A800C4A5A800C4A5A8003
:100D30001A005378DB09FCD17047C0460008004018
:100D4000FFFCFFFF000C004000060900010301004A
:100D50001440000017400000194000001B40000034
:100D600005410000174A916940230B439361164ADD
:100D7000117801230B4313705378DB09012BFBD04F
:100D8000114B5A69802109010A435A61D9690F4AF6
:100D90000A40802149010A43DA61D9690C4A0A40B4
:100DA000DA61197802220A431A701A005378DB09B3
:100DB000012BFBD0044AD368802109010B43D36087
:100DC0007047C0460004004000180040FF8FFFFF3E
:100DD000FF7FFFFF054BD620195C012211431954F8
:100DE000D721585C02435A547047C0460044004122
:100DF000054BD6215A5C012082435A5401315A5C7A
:100E000082435A547047C0460044004110B5094B14
:100E10009847094B9847094B9847094B9847094B06
:100E20009847094B9847094B9847094B984700202A
:100E300010BDC046FD0B0000090D0000650D00004F
:100E400089100000591200003909000079110000D2
:100E5000D50F0000F0B5474680B404000D0000280F
:100E600006DA2D230B70444224B2013AD2B2013586
:100E7000042A2CD1261C4D4B9C4201DD4C4B1E8874
:100E800034B2FA21890020004A4B984700B2C3B21D
:100E90002B70002B5FD0FF221040474C6043861917
:100EA00034B230332B70002398466F1C261C434B02
:100EB0009C4201DD424B1E8836B2642130003D4B1E
:100EC000984700B2C3B26B70002B04D10BE0032A29
:100ED00023D145E02F00FF221040643AFF3A5043EF
:100EE000861936B205E04246002A02D020233B7024
:100EF00003E030333B70002398467D1C341C632E86
:100F000000DD632424B20A2120002A4B984700B256
:100F1000C3B27B70002B03D10AE0022A12D133E066
:100F2000FF2210400A3AFF3A5043041924B205E068
:100F30004246002A02D020232B7001E030332B7070
:100F4000013501E0012A2ED1231C092C00DD0923E3
:100F500030332B7027E020232B701F3B9846A4E7EB
:100F6000261C164B9C4201DD154B1E8836B26421AF
:100F70003000104B984700B2C3B22B70002BA9D1A0
:100F80002F0001339846B1E7231C632C00DD632357
:100F90001CB20A212000074B984700B2C3B22B7045
:100FA000002BBDD1C7E704BC9046F0BD0F27000061
:100FB00032190000D915000018FCFFFFE7030000FC
:100FC0003419000083001818002301338342FCD930
:100FD0007047C0461A4A116A80230B431362194AAC
:100FE000136802218B431360D3699B07FCD4154B14
:100FF0001A68802149050A431A601A688021890508
:101000000A431A601968104A0A401A6019680F4AA0
:101010000A40802149020A431A601A681C218A4347
:1010200010390A431A60197B0A220A431A73196895
:1010300002220A431A601A00D3699B07FCD4704746
:1010400000040040001C0042FFFFCFFFFFFFFCFF39
:101050000A4A11680A4B0B4013600A4A936A5B0AFA
:101060005B0203439362137E9B07FCD5034A13681C
:10107000802189020B4313607047C04690440041B1
:10108000FFFFFDFF001C0042114A136A8021090185
:101090000B43136200230F4A13800F4A13800F4B38
:1010A0001A8892B21A801988802252000A431A8044
:1010B000597B10220A435A73094A1A83198802225B
:1010C0000A431A801A00D37BDB09012BFBD070473F
:1010D00000040040E20A0020EA0A0020002C00423E
:1010E000409CFFFF10B50D4B1B889BB20C4A128829
:1010F0009A4211D0094B1B889BB2094A1380002BDE
:1011000004D10022074B1A70074B9847074B9847AA
:10111000431E9841C0B200E0012010BDE20A002049
:10112000DC0A0020740B002099080000D513000091
:101130000E4B9B7BDB0617D50C4B997B10220A4389
:101140009A7300221A820A4A138801339BB21380D1
:1011500013889BB2642B07D10022054B1A80054AE5
:10116000138801339BB213807047C046002C0042A5
:10117000E20A0020EA0A0020144A116A20230B43E5
:101180001362134B1A6802218A431A601A681149C4
:101190000A431A609989104A0A439A815A68C02101
:1011A00089020A435A601A00D369002BFCD1084B0C
:1011B000997D04220A439A75196802220A431A602B
:1011C0001A00D3699B07FCD47047C0460004004056
:1011D000001400420400104004C5000010B589B29C
:1011E00000290DD00400013989B201314018054AA7
:1011F000137EDB07FCD52378138501348442F7D1B5
:1012000010BDC046001400420F490B78DBB20F4AF4
:10121000108D0F4AD0540B78DBB2D35C0D2B0AD162
:101220000A000B78DBB200210948C1541170012279
:10123000084B1A7007E0044A13780133DBB21370CD
:101240000022044B1A707047760B002000140042F5
:10125000F00A0020E60A00200023024A1370024A26
:1012600013807047700B0020E80A002010B5354B42
:101270001B881BB2642B49D007DC1A000A3214D039
:10128000052B3FD014335CD138E0962252009342B4
:101290004CD002DCC82B41D053E0C822520093420C
:1012A00048D06432934249D04BE0274B1B78DBB2E5
:1012B0000A2B1FD89B00254AD3589F460922224B50
:1012C0001A703EE00B22204B1A703AE00C221E4BA3
:1012D0001A7036E00D221C4B1A7032E00E221A4BA7
:1012E0001A702EE00F22184B1A702AE01022164BAB
:1012F0001A7026E00122144B1A7022E00122124BD0
:101300001A701EE00222104B1A701AE003220E4BD4
:101310001A7004210E480F4B984712E004220A4B22
:101320001A7004210C480B4B98470AE00522064B23
:101330001A7006E00622044B1A7002E00722024BE4
:101340001A7010BDE80A0020700B00203819000048
:1013500064190000DD1100006C190000002818D08D
:101360004B00194A9B5A1BB20A3304DA4900012286
:10137000154BCA5226E04B00134A9B5A1BB2134A24
:1013800093421FDC104A49008B5A01331BB28B5227
:1013900018E04B000C4A9B5A1BB2002B05DD49009C
:1013A00001225242084BCA520CE04B00064A9B5A9B
:1013B0001BB2074A934205DB034A49008B5A013BA3
:1013C0001BB28B527047C046E80A00202F75000000
:1013D000D18AFFFF10B582B0164B186AC00B0123EB
:1013E000584018400021144B9847144B9847144B11
:1013F0001B78092B0AD10122114B1A70114B984707
:1014000011211148114B9847012010E00C4B1B781B
:1014100001200C2B0BD10122094B1A7000230093E1
:101420006433023201210A480A4CA047002002B06E
:1014300010BDC046004400415D1300006D12000065
:10144000700B0020710400005C0B0020DD11000017
:101450007419000091070000064A137E9B07FCD513
:10146000054A116904230B431361BFF34F8F30BF4B
:101470007047C0460014004200ED00E010B50C4B70
:101480001B691B0512D50A4A1369802109010B4308
:10149000136113691B05FCD400210F20054B9847ED
:1014A000054B984711210548054B984710BDC0468C
:1014B0000018004045010000710400005C0B002092
:1014C000DD110000002243088B4274D303098B42D4
:1014D0005FD3030A8B4244D3030B8B4228D3030C04
:1014E0008B420DD3FF22090212BA030C8B4202D3A6
:1014F0001212090265D0030B8B4219D300E0090ACE
:10150000C30B8B4201D3CB03C01A5241830B8B42D6
:1015100001D38B03C01A5241430B8B4201D34B03BF
:10152000C01A5241030B8B4201D30B03C01A524124
:10153000C30A8B4201D3CB02C01A5241830A8B42A9
:1015400001D38B02C01A5241430A8B4201D34B0292
:10155000C01A5241030A8B4201D30B02C01A5241F6
:10156000CDD2C3098B4201D3CB01C01A52418309AA
:101570008B4201D38B01C01A524143098B4201D3E4
:101580004B01C01A524103098B4201D30B01C01A0F
:101590005241C3088B4201D3CB00C01A5241830889
:1015A0008B4201D38B00C01A524143088B4201D3B6
:1015B0004B00C01A5241411A00D201465241104616
:1015C0007047FFE701B5002000F0F0F802BDC0460B
:1015D0000029F7D076E7704703460B437FD40022FB
:1015E00043088B4274D303098B425FD3030A8B42B7
:1015F00044D3030B8B4228D3030C8B420DD3FF2221
:10160000090212BA030C8B4202D31212090265D0EE
:10161000030B8B4219D300E0090AC30B8B4201D3A1
:10162000CB03C01A5241830B8B4201D38B03C01AE8
:101630005241430B8B4201D34B03C01A5241030B5F
:101640008B4201D30B03C01A5241C30A8B4201D310
:10165000CB02C01A5241830A8B4201D38B02C01ABB
:101660005241430A8B4201D34B02C01A5241030A32
:101670008B4201D30B02C01A5241CDD2C3098B4217
:1016800001D3CB01C01A524183098B4201D38B0194
:10169000C01A524143098B4201D34B01C01A524137
:1016A00003098B4201D30B01C01A5241C3088B427C
:1016B00001D3CB00C01A524183088B4201D38B0067
:1016C000C01A524143088B4201D34B00C01A524109
:1016D000411A00D201465241104670475DE0CA0FE0
:1016E00000D04942031000D34042534000229C46A0
:1016F00003098B422DD3030A8B4212D3FC228901AA
:1017000012BA030A8B420CD3890192118B4208D37F
:10171000890192118B4204D389013AD0921100E0E1
:101720008909C3098B4201D3CB01C01A52418309F5
:101730008B4201D38B01C01A524143098B4201D322
:101740004B01C01A524103098B4201D30B01C01A4D
:101750005241C3088B4201D3CB00C01A52418308C7
:101760008B4201D38B00C01A5241D9D243088B421D
:1017700001D34B00C01A5241411A00D201466346C0
:1017800052415B10104601D34042002B00D5494224
:10179000704763465B1000D3404201B5002000F063
:1017A00005F802BD0029F8D016E770477047C0461B
:1017B00070B50D4E0D4D0024AD1BAD1005D0A3002E
:1017C000F35801349847A542F9D100F0DBF8084EF0
:1017D000084D0024AD1BAD1005D0A300F358013413
:1017E0009847A542F9D170BD9019000090190000EA
:1017F0009019000098190000034B10B5002B02D07F
:10180000024800F005F810BD00000000211800009B
:1018100010B5010000230022002000F01BF810BDCD
:1018200070B5094B094CE41AA41009D0084AA51850
:10183000AD00ED182B68013C9847043D002CF9D110
:1018400000F0AAF870BDC046A4190000A819000055
:10185000FFFFFF3FF8B544465F4656464D469B4660
:101860002F4BF0B41C68A4235B000500E0580E0069
:10187000904600284BD043681F2B0DDC5C1C002DCC
:1018800021D102339B0044601E5000203CBC904696
:101890009946A246AB46F8BD224B002B3CD0C8204F
:1018A000400000E000BF002836D0A42200235200F0
:1018B000A15843600160A0504032835004328350ED
:1018C0000124002DDDD09A009146814442468821B2
:1018D0004F467A50C422520090468044424687398F
:1018E000994012688A460A4394464246614611600E
:1018F000842249465F4652008F50022DC1D102001A
:1019000055468D32FF3211680D431560B9E720004E
:101910004D30FF30E050AEE701204042B6E7C04610
:1019200080190000000000004472756753746F72E4
:1019300065000F27E7030000F4120000F412000016
:10194000BC120000C4120000CC120000D41200002F
:10195000DC120000E4120000EC120000F41200009F
:10196000BC1200003153454B000000003253454B80
:1019700000000000534C45455000000043000000AB
:1019800098060020F8B5C046F8BC08BC9E467047D3
:10199000F9170000DD000000F8B5C046F8BC08BC2F
:0819A0009E467047B5000000EF
:1019A80040420F000000000000000000000000009E
:1019B800000000000000000000002FE00000000010
:1019C800000000000000000000E00000000000E04F
:1019D80000000000000008803FE0088008803FE029
:1019E800088000000000118022407FE02440188019
:1019F80000000000104008A004A012402900288020
:101A08001040000000001CC0232024C0180024003F
:101A18000000000000000000000000E000000000DE
:101A2800000000000000000000007FC080200000CF
:101A38000000000000000000000080207FC00000BF
:101A4800000000000000000000A0004000A000000E
:101A5800000000000000040004001F00040004004F
:101A6800000000000000000040002000000000000E
:101A78000000000000000000000004000400000056
:101A8800000000000000000020000000000000002E
:101A9800000000000000000030000C00030000E01F
:101AA8000000000000001FC02020202020201FC0B0
:101AB800000000000000004000403FE0000000007F
:101AC800000000000000304028202420222021C0EF
:101AD80000000000000010402020222022201DC00D
:101AE8000000000000000C000B0008C03FE00800E8
:101AF80000000000000013E02120212021201E20EA
:101B08000000000000001FC02220222022201C40CC
:101B180000000000000000203820062001A000601E
:101B28000000000000001DC02220222022201DC02D
:101B380000000000000011C02220222022201FC027
:101B4800000000000000000021000000000000006C
:101B5800000000000000000040002100000000001C
:101B680000000000000004000A00110020800000AE
:101B78000000000000000A000A000A000A000A002B
:101B8800000000000000208011000A00040000008E
:101B9800000000000000004000202C20022001C0AE
:101BA800000000000F0030C046204920492047208F
:101BB80008C00F0030000E000980086009800E0080
:101BC8003000000000003FE02220222022201DC01B
:101BD800000000001FC020202020202020201040CE
:101BE8000000000000003FE02020202020201040BE
:101BF8000F80000000003FE0222022202220202029
:101C08000000000000003FE0022002200220002027
:101C18000000000000001FC02020202022201220E9
:101C28003E40000000003FE0020002000200020007
:101C38003FE00000000000003FE00000000000005E
:101C48000000000000001800200020001FE0000035
:101C58000000000000003FE003000480084010205E
:101C68002000000000003FE02000200020002000AD
:101C78000000000000003FE0018006001800060098
:101C880001803FE000003FE000C0030004001800AE
:101C98003FE0000000001FC020202020202020203E
:101CA8001FC0000000003FE00220022002200220A6
:101CB80001C0000000001FC0202020202820302064
:101CC8005FC0000000003FE0022002200220022046
:101CD8003DC00000000011C02220222022201C400C
:101CE800000000000000002000203FE0002000204D
:101CF8000000000000001FE020002000200020005D
:101D08001FE000000000006003800C0030000C00A1
:101D18000380006000000C0030000C0003800C0001
:101D280030000C000000306008800500020005004B
:101D38000880306000000060008001003E00010063
:101D4800008000600000302028202420222021204C
:101D580020A0206000000000FFE0802000000000BC
:101D6800000000000000000000E003000C0030004C
:101D780000000000000000008020FFE000000000DC
:101D8800000000000000004000200010002000407B
:101D980000000000000080008000800080008000BB
:101DA800800000000000000000000020004000004B
:101DB80000000000000018002500250025003E0056
:101DC8000000000000003FE02100210021001E006B
:101DD8000000000000001E00210021002100120068
:101DE8000000000000001E002100210021003FE04B
:101DF8000000000000001E00250025002500160038
:101E080000000000000000003FC0012000000000AA
:101E18000000000000009E00A100A100A1007F00BA
:101E28000000000000003FE00200010001003E0049
:101E3800000000000000000000003F20000000003B
:101E480000000000000000000000FF20000000006B
:101E58000000000000003FE004000A00110020001C
:101E6800000000000000000000003FE0000000004B
:101E78000000000000003F0001003E0001003E009D
:101E880000000000000000003F0002000100010007
:101E98003E00000000001E002100210021001E005D
:101EA800000000000000FF002100210021001E00AA
:101EB8000000000000001E00210021002100FF009A
:101EC800000000000000000000003F0001000000CA
:101ED8000000000000000000120025002900120088
:101EE80000000000000000001FC0210000000000EA
:101EF8000000000000001F002000200010003F002C
:101F080000000000000003000C0030000C0003007B
:101F1800000000000F0030000C0003000C0030002F
:101F28000F0000000000000033000C000C0033001C
:101F380000000000000080008F00700010000F00FB
:101F480000000000000000003100290025002300E7
:101F5800000000000000000002003DE0401000000A
:101F6800000000000000000000007FE0000000000A
:101F7800000000000000000040103DE002000000EA
:101F88000000000000000080004000400080008049
:101F98000040000000F8FC0404FCF80000030704FB
:101FA80004070300000008FCFC0000000000040710
:101FB8000704000000181C84C47C380000060705CC
:101FC8000404040000080C2424FCD80000020604C1
:101FD8000407030080E07018FCFC00000001010504
:101FE80007070400007C7C2424E4C40000030704E1
:101FF8000407030000F0F86C24ECCC00000307048D
:1020080004070300000C0CC4FC3C0400000000079B
:10201800070000000098FC6464FC980000030704B3
:10202800040703000078FC84C4FCF80000060604DA
:1020380006030100000000000000000084090020E1
:10204800EC090020540A00200000000000000000F5
:102058000000000000000000000000000000000078
:102068000000000000000000000000007C190000D3
:102078000000000000000000000000000000000058
:102088000000000000000000000000000000000048
:102098000000000000000000000000000000000038
:1020A8000000000000000000000000000000000028
:1020B8000000000000000000000000000000000018
:1020C8000000000000000000000000000000000008
:1020D80000000000000000000000000000000000F8
:1020E80001000000000000000E33CDAB34126DE695
:1020F800ECDE05000B0000000000000000000000FE
:1021080000000000000000000000000000000000C7
:1021180000000000000000000000000000000000B7
:1021280000000000000000000000000000000000A7
:102138000000000000000000000000000000000097
:00000001FF
