:10000000E82800208D050000890500008905000012
:1000100000000000000000000000000000000000E0
:100020000000000000000000000000008905000042
:1000300000000000000000008905000089050000A4
:100040008905000089050000890500008905000078
:1000500019130000890500008905000089050000CA
:100060008905000089050000890500008905000058
:10007000B510000089050000890500008905000011
:100080008905000089050000DD0F000089050000DA
:100090008905000089050000890500008905000028
:1000A0008905000089050000890500008905000018
:1000B0000000000010B5064C2378002B07D1054B3B
:1000C000002B02D0044800E000BF0123237010BDC4
:1000D000300800200000000038180000084B10B560
:1000E000002B03D00749084800E000BF0748036819
:1000F000002B00D110BD064B002BFBD09847F9E731
:1001000000000000340800203818000038180000F3
:100110000000000010B5074B18706922012118007B
:10012000054B9847054C692201212000044B984754
:10013000207810BDA80800205108000060080020A9
:10014000C908000010B5054B1870597069220221CA
:100150001800034B9847012010BDC046A808002096
:100160005108000010B5012110200C4CA0470321BC
:100170001120A047E4211220A0473B211820A047CE
:10018000A1211F20A047E1211C20A0479D211F2065
:10019000A047A0212620A04710BDC0464501000071
:1001A00010B50120024B98477F23184010BDC04670
:1001B0001501000010B50220024B98477F2318401C
:1001C00010BDC0461501000010B50320024B984732
:1001D0003F23184010BDC0461501000010B5072090
:1001E000024B98470723184010BDC0461501000078
:1001F00010B50420024B98473F23184010BDC0465D
:100200001501000010B50520024B98471F23184028
:1002100010BDC0461501000010B50620014B9847DF
:1002200010BDC0461501000010B56021054B984770
:10023000C9B2054B19701978C9B20120034B984710
:1002400010BDC0466D140000E40800204501000008
:1002500010B56021054B9847C9B2054B1970197844
:10026000C9B20220034B984710BDC0466D14000070
:10027000E30800204501000010B52421054B9847F4
:10028000C9B2054B19701978C9B20320034B9847BE
:1002900010BDC0466D1400005D080020450100003F
:1002A00010B507231840044B18701978C9B20720FD
:1002B000024B984710BDC04657080020450100007A
:1002C00010B53221054B9847C9B2054B1970197802
:1002D000C9B20420034B984710BDC0466D140000FE
:1002E000510800204501000010B51321054B984727
:1002F000C9B2054B19701978C9B20520034B98474C
:1003000010BDC0466D140000CA0800204501000061
:1003100010B50100024B18700620024B984710BD23
:100320005008002045010000F0B583B00F00009296
:10033000019308AB1E7809AB1D780AAB1C780B4BF8
:10034000984738000A4B984700980A4B98470198FD
:10035000094B98473000094B98472800084B9847AD
:100360002000084B984703B0F0BDC04611030000C1
:10037000E9020000C1020000A102000079020000B1
:10038000510200002902000010B56021054B98477A
:10039000C9B2054B19701978C9B20920034B9847A7
:1003A00010BDC0466D140000E108002045010000AA
:1003B00010B56021054B9847C9B2054B19701978E3
:1003C000C9B20A20034B984710BDC0466D14000007
:1003D000E20800204501000010B52421054B984794
:1003E000C9B2054B19701978C9B20B20034B984755
:1003F00010BDC0466D1400005508002045010000E6
:1004000010B507231840044B18701978C9B20E2094
:10041000024B984710BDC04654080020450100001B
:1004200010B53221054B9847C9B2054B19701978A0
:10043000C9B20C20034B984710BDC0466D14000094
:100440005C0800204501000010B51321054B9847BA
:10045000C9B2054B19701978C9B20D20034B9847E2
:1004600010BDC0466D140000C80800204501000002
:10047000F0B5474680B4364B9847364E30703078EA
:10048000354C000901222100344DA8473078611C09
:100490000F2630400122A8472E239846A370304BE8
:1004A0009847304F38703878E11C00090122A8477E
:1004B0003878211D30400122A847434663712A4BFA
:1004C00098472A4F38703878A11D00090122A847A3
:1004D0003878E11D30400122A8472F232372244B96
:1004E0009847244F387038782100093100090122DB
:1004F000A847387821000A3130400122A8473A2322
:100500009846E3721C4B98471C4F3870387821008E
:100510000C3100090122A847387821000D31304004
:100520000122A8474346A373154B9847154F3870CF
:10053000387821000F3100090122A84738782100BE
:10054000103130400122A84704BC9046F0BDC0469F
:10055000F101000051080020CC080020190D000016
:1005600005020000CA0800201902000050080020FF
:10057000C90100005D080020B5010000E30800206B
:10058000A1010000E4080020FEE7C04670B52E4B34
:100590002E4A9A4203D02E4B2B4A9A4204D32D4B1B
:1005A0002D4A9A4210D31EE02C4A294B03339B1A42
:1005B0009B0801339B000022234824498C58845017
:1005C00004329A42FAD1EAE7254A224B03339B1AB6
:1005D0009B0801339B0000221F4800211418216052
:1005E00004329A42FAD11F4AFF211F4B8B4393607A
:1005F000FD3990235B001D4AD1501D48C378032468
:10060000A34302221343C370C3780C26B3430821CB
:100610000B43C370174B987B3025A843050020205F
:1006200028439873987BB04301439973997BA14306
:100630000A439A73104A516880230B4353600F4B4F
:1006400098470F4B9847FEE700000020381800003D
:1006500030080020E80800203008002004000020B6
:100660003408002000ED00E00000000000700041B0
:100670000050004100480041004000414D1600007C
:100680007D090000014A024B1A60704740420F008A
:100690000000002010B5044A1368802109010B43B3
:1006A0001360024B984710BD94440041150F0000A1
:1006B00010B5044A1368802109010B431360024BF3
:1006C000984710BD98440041150F000010B5B023A5
:1006D0001843014B984710BD9506000070B5040003
:1006E000000910231843034DA8470F202040A847B6
:1006F00070BDC0469506000070B505008120024C13
:10070000A0472800A04770BD95060000F8B54F46E9
:100710004646C0B41D4B98460E2342461370E22055
:100720001B4CA0471B4E33688022D20091461343D6
:100730003360C820184FB847184D2B684A461343FA
:100740002B60C820B84733684A4613433360FA2009
:100750008000B8472B688022920213432B60A020B0
:10076000A047C820A047A220A0472F20A0472520AF
:10077000A04743461878C0B2094B98474020A0478D
:10078000AF20A0470CBC90469946F8BDC708002092
:100790009506000098440041890E000094440041F1
:1007A000F9060000F8B54F464646C0B404004020A4
:1007B0000D4B984700270D4B99460D4B98460D4E13
:1007C0003800C8470020C047250080352078B04752
:1007D0000134AC42FAD10137FFB22C00082FEFD11F
:1007E0000CBC90469946F8BD95060000CD06000069
:1007F000DD060000B1060000134A116A04230B4312
:100800001362124B196814220A431A60D968CF2266
:100810000A43DA605A68802149000A435A601A0084
:10082000D369002BFCD1094A116802330B431360D2
:10083000D369002BFCD1054A518B10330B435383F2
:10084000D369002BFCD1704700040040000800422F
:10085000F0B5474680B452001A4B5A621C00012280
:10086000237E1342FCD0174B5B8B5B0705D5154AE3
:100870005368C024A40223435360002918DD0025D7
:10088000104A2827012404239846C0239B029C4633
:10089000435DD355137E2342FCD0538B46463342EF
:1008A00003D0536866463343536001358D42EFDB16
:1008B000044A5368C02189020B43536004BC90462C
:1008C000F0BDC04600080042F0B5520001231A43B3
:1008D0001B4B5A621C000222237E1342FCD0184B91
:1008E0005B8B5B0705D5164A5368C024A4022343DB
:1008F0005360134A5468134B234053604E1E002E1E
:100900000ADD002528270224D35D4355137E2342A8
:10091000FCD00135B542F7DB00290FD0084B5A68EF
:100920008024E40222435A605A68C024A40222436D
:100930005A6028229B5C401801380370F0BDC04605
:1009400000080042FFFFFBFF044B802252011A60A7
:100950008022D2021A6010221A60704700E100E083
:10096000054A802380214901D1508021C902D150FC
:100970001021D1507047C04600E100E0F0B585B0CD
:10098000354B9847354B9847354B9847354B9847EB
:100990000122354B1A701C00344E1F002378DBB245
:1009A000022B45D002D8012B05D0F7E7032B45D009
:1009B000042B49D0F2E72E4B9847352302931C3B7A
:1009C0000193093B00930D3B292203211720294D58
:1009D000A8474020284B9847284B9847284B9847D2
:1009E000284B9847284B9847284B9847284B9847BF
:1009F000284B9847284B9847284B9847284B9847AF
:100A0000284A1368802189020B431360264B9847BC
:100A1000FA208000254B9847A620254DA847A42002
:100A2000A8472448244B984703220F4B1A70B5E778
:100A3000224B984703220C4B1A70AFE7B0470028AF
:100A4000ACD104233B70A9E71D4B98471D4B984739
:100A50000222054B1A70A1E785060000610900001B
:100A6000D10C000049090000C6080020A90F0000B1
:100A7000650100002903000089030000B5010000A2
:100A8000B1030000C9010000D9030000F10100001A
:100A9000210400000502000049040000DD010000FF
:100AA00001040000944400410D070000890E00007D
:100AB0009506000004000020A5070000990C000026
:100AC000B50C0000F512000070B53D4B4820195CD4
:100AD0000122114319540130195C1143195427386C
:100AE000342158545624195D114319550134195DA8
:100AF000114319553B215854293418598025AD020A
:100B00002843185198201958294319503830195C36
:100B100011431954B825595D02200143C9B25955F2
:100B20001E35595D11435955BB215E5CD33D35439C
:100B30005D54D7269D5D15439D555E5C302535433C
:100B40005D541959C0252D012943195194215C5830
:100B50008025ED002C435C503A315C5C14435C54BE
:100B600017395E5C072434435C54196829431960C3
:100B7000996980242402214399614F215C5C1443CC
:100B80005C545C5C04435C545D5C042425435D540C
:100B90003725595DC9B259554B215D5C2A435A54DA
:100BA0005A5C104358545A5C14435C5416395A5CCE
:100BB000D2B25A54F823034A1360034A136070BD3B
:100BC0000044004108440041144400410C4A116AA9
:100BD0000C4B0B4013620C4B0C4A5A600C4A5A6087
:100BE0000C4A5A800C4A5A800C4A5A800C4A5A8045
:100BF0000C4A5A801A005378DB09FCD17047C04672
:100C000000080040FFFCFFFF000C00400006090048
:100C100001030100144000001740000019400000CB
:100C20001B40000005410000174A916940230B4317
:100C30009361164A117801230B4313705378DB0933
:100C4000012BFBD0114B5A69802109010A435A61DB
:100C5000D9690F4A0A40802149010A43DA61D969FA
:100C60000C4A0A40DA61197802220A431A701A0003
:100C70005378DB09012BFBD0044AD368802109019A
:100C80000B43D3607047C04600040040001800408A
:100C9000FF8FFFFFFF7FFFFF054BD620195C01226E
:100CA00011431954D721585C02435A547047C04627
:100CB00000440041054BD6215A5C012082435A541E
:100CC00001315A5C82435A547047C0460044004187
:100CD00010B5094B9847094B9847094B9847094B62
:100CE0009847094B9847094B9847094B9847094B38
:100CF0009847002010BDC046C90A0000CD0B000077
:100D0000290C00004D0F000005110000F90700003C
:100D100025100000990E0000F0B5474680B404008D
:100D20000D00002806DA2D230B70444224B2013A4C
:100D3000D2B20135042A2CD1261C4D4B9C4201DD38
:100D40004C4B1E8834B2FA21890020004A4B984748
:100D500000B2C3B22B70002B5FD0FF221040474C73
:100D60006043861934B230332B70002398466F1CD1
:100D7000261C434B9C4201DD424B1E8836B2642147
:100D800030003D4B984700B2C3B26B70002B04D1CA
:100D90000BE0032A23D145E02F00FF221040643AE4
:100DA000FF3A5043861936B205E04246002A02D087
:100DB00020233B7003E030333B70002398467D1CBA
:100DC000341C632E00DD632424B20A2120002A4B48
:100DD000984700B2C3B27B70002B03D10AE0022A0D
:100DE00012D133E0FF2210400A3AFF3A504304196F
:100DF00024B205E04246002A02D020232B7001E0F5
:100E000030332B70013501E0012A2ED1231C092C2F
:100E100000DD092330332B7027E020232B701F3B8C
:100E20009846A4E7261C164B9C4201DD154B1E88F4
:100E300036B264213000104B984700B2C3B22B7019
:100E4000002BA9D12F0001339846B1E7231C632C56
:100E500000DD63231CB20A212000074B984700B233
:100E6000C3B22B70002BBDD1C7E704BC9046F0BDC8
:100E70000F270000C41700007514000018FCFFFFC6
:100E8000E7030000C6170000830018180023013391
:100E90008342FCD97047C0461A4A116A80230B432B
:100EA0001362194A136802218B431360D3699B07AD
:100EB000FCD4154B1A68802149050A431A601A6848
:100EC000802189050A431A601968104A0A401A608D
:100ED00019680F4A0A40802149020A431A601A68B9
:100EE0001C218A4310390A431A60197B27220A43BE
:100EF0001A73196802220A431A601A00D3699B0701
:100F0000FCD4704700040040001C0042FFFFCFFFEC
:100F1000FFFFFCFF0A4A1368802189020B4313601C
:100F2000084A936A5B0A5B0203439362137E9B0742
:100F3000FCD5054A1368802189020B431360704772
:100F400094440041001C004298440041114A136A35
:100F5000802109010B43136200230F4A13800F4ABB
:100F600013800F4B1A8892B21A801988802252007F
:100F70000A431A80597B10220A435A73094A1A837A
:100F8000198802220A431A801A00D37BDB09012B3D
:100F9000FBD0704700040040520800205A0800208F
:100FA000002C0042409CFFFF10B5094B1B889BB2F0
:100FB000084A128801209A4208D0054B1A88054B2E
:100FC0001A80054B9847431E9841C0B210BDC046D9
:100FD000520800204C080020811200000E4B9B7B21
:100FE000DB0617D50C4B997B10220A439A7300221B
:100FF0001A820A4A138801339BB2138013889BB26A
:10100000642B07D10022054B1A80054A138801334F
:101010009BB213807047C046002C0042520800204B
:101020005A080020144A116A20230B431362134B01
:101030001A6802218A431A601A6811490A431A6021
:101040009989104A0A439A815A68C02189020A4341
:101050005A601A00D369002BFCD1084B997D0422F9
:101060000A439A75196802220A431A601A00D36962
:101070009B07FCD47047C0460004004000140042A7
:101080000400104004C5000010B589B200290DD03D
:101090000400013989B201314018054A137EDB078B
:1010A000FCD52378138501348442F7D110BDC046A6
:1010B000001400420F490B78DBB20F4A108D0F4A23
:1010C000D0540B78DBB2D35C0D2B0AD10A000B781D
:1010D000DBB200210948C15411700122084B1A707B
:1010E00007E0044A13780133DBB213700022044B8B
:1010F0001A707047E50800200014004260080020C4
:10110000560800200023024A1370024A13807047D9
:10111000E00800205808002010B5354B1B881BB292
:10112000642B49D007DC1A000A3214D0052B3FD0BB
:1011300014335CD138E09622520093424CD002DC4A
:10114000C82B41D053E0C8225200934248D06432A9
:10115000934249D04BE0274B1B78DBB20A2B1FD8B8
:101160009B00254AD3589F460922224B1A703EE025
:101170000B22204B1A703AE00C221E4B1A7036E0FC
:101180000D221C4B1A7032E00E221A4B1A702EE000
:101190000F22184B1A702AE01022164B1A7026E004
:1011A0000122144B1A7022E00122124B1A701EE029
:1011B0000222104B1A701AE003220E4B1A700421FF
:1011C0000E480F4B984712E004220A4B1A70042174
:1011D0000C480B4B98470AE00522064B1A7006E0B4
:1011E0000622044B1A7002E00722024B1A7010BD4F
:1011F00058080020E0080020C8170000F41700007D
:1012000089100000FC170000002818D04B00194A74
:101210009B5A1BB20A3304DA49000122154BCA5209
:1012200026E04B00134A9B5A1BB2134A93421FDC21
:10123000104A49008B5A01331BB28B5218E04B0005
:101240000C4A9B5A1BB2002B05DD49000122524279
:10125000084BCA520CE04B00064A9B5A1BB2074A85
:10126000934205DB034A49008B5A013B1BB28B5268
:101270007047C046580800202F750000D18AFFFF34
:1012800010B5144B186AC00B0123584018400021B8
:10129000114B9847114B9847114B1B78092B0AD1DA
:1012A00001220F4B1A700F4B984711210E480F4B1C
:1012B000984701200CE00A4B1B7801200C2B07D12A
:1012C0000122074B1A7005210948084B9847002056
:1012D00010BDC04600440041091200001911000071
:1012E000E008002071040000CC08002089100000F4
:1012F00004180000064A137E9B07FCD5054A1169B5
:1013000004230B431361BFF34F8F30BF7047C046B8
:101310000014004200ED00E010B50C4B1B691B05EA
:1013200012D50A4A1369802109010B43136113691D
:101330001B05FCD400210F20054B9847054B98470F
:1013400011210548054B984710BDC04600180040C4
:101350004501000071040000CC0800208910000045
:10136000002243088B4274D303098B425FD3030AE4
:101370008B4244D3030B8B4228D3030C8B420DD3F7
:10138000FF22090212BA030C8B4202D31212090285
:1013900065D0030B8B4219D300E0090AC30B8B42C3
:1013A00001D3CB03C01A5241830B8B4201D38B0371
:1013B000C01A5241430B8B4201D34B03C01A524116
:1013C000030B8B4201D30B03C01A5241C30A8B4259
:1013D00001D3CB02C01A5241830A8B4201D38B0244
:1013E000C01A5241430A8B4201D34B02C01A5241E8
:1013F000030A8B4201D30B02C01A5241CDD2C3095A
:101400008B4201D3CB01C01A524183098B4201D3D5
:101410008B01C01A524143098B4201D34B01C01AC0
:10142000524103098B4201D30B01C01A5241C30838
:101430008B4201D3CB00C01A524183088B4201D3A7
:101440008B00C01A524143088B4201D34B00C01A93
:101450005241411A00D20146524110467047FFE7FF
:1014600001B5002000F0F0F802BDC0460029F7D019
:1014700076E7704703460B437FD4002243088B4234
:1014800074D303098B425FD3030A8B4244D3030B0B
:101490008B4228D3030C8B420DD3FF22090212BAD0
:1014A000030C8B4202D31212090265D0030B8B424C
:1014B00019D300E0090AC30B8B4201D3CB03C01A36
:1014C0005241830B8B4201D38B03C01A5241430B11
:1014D0008B4201D34B03C01A5241030B8B4201D301
:1014E0000B03C01A5241C30A8B4201D3CB02C01A6C
:1014F0005241830A8B4201D38B02C01A5241430AE4
:101500008B4201D34B02C01A5241030A8B4201D3D2
:101510000B02C01A5241CDD2C3098B4201D3CB0179
:10152000C01A524183098B4201D38B01C01A524128
:1015300043098B4201D34B01C01A524103098B422C
:1015400001D30B01C01A5241C3088B4201D3CB0017
:10155000C01A524183088B4201D38B00C01A5241FA
:1015600043088B4201D34B00C01A5241411A00D2AA
:1015700001465241104670475DE0CA0F00D0494213
:10158000031000D34042534000229C4603098B4283
:101590002DD3030A8B4212D3FC22890112BA030A0B
:1015A0008B420CD3890192118B4208D3890192118D
:1015B0008B4204D389013AD0921100E08909C30912
:1015C0008B4201D3CB01C01A524183098B4201D314
:1015D0008B01C01A524143098B4201D34B01C01AFF
:1015E000524103098B4201D30B01C01A5241C30877
:1015F0008B4201D3CB00C01A524183088B4201D3E6
:101600008B00C01A5241D9D243088B4201D34B0000
:10161000C01A5241411A00D20146634652415B1042
:10162000104601D34042002B00D549427047634623
:101630005B1000D3404201B5002000F005F802BD68
:101640000029F8D016E770477047C04670B50D4EB8
:101650000D4D0024AD1BAD1005D0A300F35801348F
:101660009847A542F9D100F0D5F8084E084D00245E
:10167000AD1BAD1005D0A300F35801349847A54227
:10168000F9D170BD201800002018000020180000BB
:1016900028180000034B10B5002B02D0024800F0C0
:1016A00005F810BD00000000BD16000010B50100D7
:1016B00000230022002000F01BF810BD70B5094B7C
:1016C000094CE41AA41009D0084AA518AD00ED1879
:1016D0002B68013C9847043D002CF9D100F0A4F898
:1016E00070BDC0463418000038180000FFFFFF3FEF
:1016F000F8B544465F4656464D469B462F4BF0B4E0
:101700001C68A4235B000500E0580E0090460028EA
:101710004BD043681F2B0DDC5C1C002D21D1023304
:101720009B0044601E5000203CBC90469946A24657
:10173000AB46F8BD224B002B3CD0C820400000E057
:1017400000BF002836D0A42200235200A1584360D5
:101750000160A05040328350043283500124002D98
:10176000DDD09A0091468144424688214F467A5006
:10177000C4225200904680444246873999401268FC
:101780008A460A439446424661461160842249468D
:101790005F4652008F50022DC1D1020055468D3256
:1017A000FF3211680D431560B9E720004D30FF305E
:1017B000E050AEE701204042B6E7C04610180000F6
:1017C000000000000F27E703A0110000A011000097
:1017D00068110000701100007811000080110000F5
:1017E000881100009011000098110000A011000065
:1017F000681100003153454B000000003253454B47
:1018000000000000534C454550000000430000001C
:1018100008040020F8B5C046F8BC08BC9E467047D6
:1018200095160000DD000000F8B5C046F8BC08BC05
:081830009E467047B500000060
:1018380040420F00FF0101F94949494901C1B189F5
:10184800B1C10131494991010909F9090901F94968
:1018580049C9310101F90101314949910101F901F0
:1018680001F9314181F90101F1090949D101010168
:10187800010909F9090901F94949494901F1090920
:1018880009110101F9414141F90101010101F10980
:101898000909110101F1090909F101010101010118
:1018A8000101F90101010909F9090901F909090900
:1018B800F10101FFFF000003020202020201000021
:1018C80000010201020201008080F3808000E32011
:1018D8002020E300000300E0212222212020F32021
:1018E800000300404143C070414242426140004011
:1018F80040404043D060404342424202002122E23D
:101908001201408003F00000038080F28000818291
:1019180082F28180800102020201000002000006BA
:10192800000003020202000003000000030202029A
:10193800010000FFFF0000000000000000000000A0
:10194800000000000000000080601F007F809F9260
:1019580092929FE0000000FF424242424242FF0052
:101968000000004026150C84FF040C1424400000DD
:1019780080402018074282423E000000110905FFFE
:101988000519121410FF0808000884FF0280808ED1
:101998005223528E8000000000000000000000006A
:1019A800000000000000000000000000000000002F
:1019B800000000FFFF000000000000000000000021
:1019C800000000000000000000000000000000000F
:1019D80000000000000000000000000000000000FF
:1019E80000000000000000000000000000000000EF
:1019F80000000000000000000000000000000000DF
:101A080000000000000000000000000000000000CE
:101A180000000000000000000000000000000000BE
:101A280000000000000000000000000000000000AE
:101A3800000000FFFF0000000000000000000000A0
:101A4800FCFC444444440000FCFC848484FC78008E
:101A580000F0F80C0404040C08003018FCFC00002A
:101A6800080C84C4FC3800B8FC4444FCB800F0F806
:101A78004444CC880000C030FCFC0000808080001A
:101A88003018FCFC0000080C84C4FC38000060908E
:101A98009010102000804040408000C0804000D05E
:101AA80000804040408000804040408000000000AE
:101AB800000000FFFF000000000000000000000020
:101AC8000F0F0808080800000F0F000001070E0894
:101AD8000003070C0808080C040000000F0F0000A2
:101AE8000C0E0B09080800070F08080F0700070F5E
:101AF80008080F07000302020F0F02000000000091
:101B080000000F0F00000C0E0B0908080000040865
:101B180008090906000709090905000F0000000F58
:101B2800000709090905000409090A040000000062
:101B3800000000FFFF000080C0000000804040401F
:101B4800800080404040800000000000000080408D
:101B580040408000000080C00000000000C04040FD
:101B6800408000400000000000000000000000006D
:101B780000C000000000000000000000000000009D
:101B8800000000000000000000804040404080004D
:101B9800C04040408000C00000000000008040407D
:101BA80040800000C040404000804040408000002D
:101BB80080C000FFFF808180BF808080A0B0A8A483
:101BC800A3809DA2A2A29D80A1928C92A1809FA297
:101BD800A2A29C808C8B88BF8880808080BF8484F0
:101BE800848380BF80A1928C92A1809EA5A5A59692
:101BF80080BF8092A5A5A992808080808080808007
:101C080080808080808080808091A2A2A4A4988017
:101C1800BF8484848380BFA0A0A0A0808F90A0A050
:101C2800A0908093A2A2A29C809FA0A0A09F808148
:101C380080BF80FF0000000000000000F4060020C4
:101C48005C070020C407002000000000000000001E
:101C5800000000000000000000000000000000007C
:101C68000000000000000000000000000C18000048
:101C7800000000000000000000000000000000005C
:101C8800000000000000000000000000000000004C
:101C9800000000000000000000000000000000003C
:101CA800000000000000000000000000000000002C
:101CB800000000000000000000000000000000001C
:101CC800000000000000000000000000000000000C
:101CD80000000000000000000000000000000000FC
:101CE80001000000000000000E33CDAB34126DE699
:101CF800ECDE05000B000000000000000000000002
:101D080000000000000000000000000000000000CB
:101D180000000000000000000000000000000000BB
:101D280000000000000000000000000000000000AB
:101D3800000000000000000000000000000000009B
:00000001FF
