S01A00004669726D776172655F4472756773746F72652E73726563AF
S1130000E82400208D050000890500008905000012
S113001000000000000000000000000000000000DC
S1130020000000000000000000000000890500003E
S113003000000000000000008905000089050000A0
S11300408905000089050000890500008905000074
S1130050A10F000089050000890500008905000042
S11300608905000089050000890500008905000054
S1130070750D000089050000890500008905000050
S11300808905000089050000A10C00008905000015
S11300908905000089050000890500008905000024
S11300A08905000089050000890500008905000014
S11300B00000000010B5064C2378002B07D1054B37
S11300C0002B02D0044800E000BF0123237010BDC0
S11300D03004002000000000C0140000084B10B5DC
S11300E0002B03D00749084800E000BF0748036815
S11300F0002B00D110BD064B002BFBD09847F9E72D
S11301000000000034040020C0140000C0140000EB
S11301100000000010B5074B187069220121180077
S1130120054B9847054C692201212000044B984750
S1130130207810BDA8040020ED0600006004002013
S11301406507000010B5054B18705970692202212B
S11301501800034B9847012010BDC046A804002096
S1130160ED06000010B5012110200C4CA04703211E
S11301701120A047E4211220A0473B211820A047CA
S1130180A1211F20A047E1211C20A0479D211F2061
S1130190A047A0212620A04710BDC046450100006D
S11301A010B50120024B98477F23184010BDC0466C
S11301B01501000010B50220024B98477F23184018
S11301C010BDC0461501000010B50320024B98472E
S11301D03F23184010BDC0461501000010B507208C
S11301E0024B98470723184010BDC0461501000074
S11301F010B50420024B98473F23184010BDC04659
S11302001501000010B50520024B98471F23184024
S113021010BDC0461501000010B50620014B9847DB
S113022010BDC0461501000010B56021054B98476C
S1130230C9B2054B19701978C9B20120034B98470C
S113024010BDC046F5100000E40400204501000084
S113025010B56021054B9847C9B2054B1970197840
S1130260C9B20220034B984710BDC046F5100000E8
S1130270E30400204501000010B52421054B9847F4
S1130280C9B2054B19701978C9B20320034B9847BA
S113029010BDC046F51000005D04002045010000BB
S11302A010B507231840044B18701978C9B20720F9
S11302B0024B984710BDC04657040020450100007A
S11302C010B53221054B9847C9B2054B19701978FE
S11302D0C9B20420034B984710BDC046F510000076
S11302E0510400204501000010B51321054B984727
S11302F0C9B2054B19701978C9B20520034B984748
S113030010BDC046F5100000C904002045010000DE
S113031010B50100024B18700620024B984710BD1F
S11303205004002045010000F0B583B00F00009296
S1130330019308AB1E7809AB1D780AAB1C780B4BF4
S1130340984738000A4B984700980A4B98470198F9
S1130350094B98473000094B98472800084B9847A9
S11303602000084B984703B0F0BDC04611030000BD
S1130370E9020000C1020000A102000079020000AD
S1130380510200002902000010B56021054B984776
S1130390C9B2054B19701978C9B20920034B9847A3
S11303A010BDC046F5100000E10400204501000026
S11303B010B56021054B9847C9B2054B19701978DF
S11303C0C9B20A20034B984710BDC046F51000007F
S11303D0E20400204501000010B52421054B984794
S11303E0C9B2054B19701978C9B20B20034B984751
S11303F010BDC046F5100000550400204501000062
S113040010B507231840044B18701978C9B20E2090
S1130410024B984710BDC04654040020450100001B
S113042010B53221054B9847C9B2054B197019789C
S1130430C9B20C20034B984710BDC046F51000000C
S11304405C0400204501000010B51321054B9847BA
S1130450C9B2054B19701978C9B20D20034B9847DE
S113046010BDC046F5100000C7040020450100007F
S1130470F0B5474680B4364B9847364E30703078E6
S1130480354C000901222100344DA8473078611C05
S11304900F2630400122A8472E239846A370304BE4
S11304A09847304F38703878E11C00090122A8477A
S11304B03878211D30400122A847434663712A4BF6
S11304C098472A4F38703878A11D00090122A8479F
S11304D03878E11D30400122A8472F232372244B92
S11304E09847244F387038782100093100090122D7
S11304F0A847387821000A3130400122A8473A231E
S11305009846E3721C4B98471C4F3870387821008A
S11305100C3100090122A847387821000D31304000
S11305200122A8474346A373154B9847154F3870CB
S1130530387821000F3100090122A84738782100BA
S1130540103130400122A84704BC9046F0BDC0469B
S1130550F101000051040020CC0400206D0A0000C9
S113056005020000C9040020190200005004002004
S1130570C90100005D040020B5010000E30400206F
S1130580A1010000E4040020FEE7C04670B52E4B34
S11305902E4A9A4203D02E4B2B4A9A4204D32D4B17
S11305A02D4A9A4210D31EE02C4A294B03339B1A3E
S11305B09B0801339B000022234824498C58845013
S11305C004329A42FAD1EAE7254A224B03339B1AB2
S11305D09B0801339B0000221F480021141821604E
S11305E004329A42FAD11F4AFF211F4B8B43936076
S11305F0FD3990235B001D4AD1501D48C378032464
S1130600A34302221343C370C3780C26B3430821C7
S11306100B43C370174B987B3025A843050020205B
S113062028439873987BB04301439973997BA14302
S11306300A439A73104A516880230B4353600F4B4B
S113064098470F4B9847FEE700000020C0140000B5
S113065030040020E80400203004002004000020BE
S11306603404002000ED00E00000000000700041B0
S1130670005000410048004100400041D5120000F4
S1130680FD070000014A024B1A60704740420F0008
S113069000000020134A116A04230B431362124B17
S11306A0196814220A431A60D968CF220A43DA600F
S11306B05A68802149000A435A601A00D369002B02
S11306C0FCD1094A116802330B431360D369002B30
S11306D0FCD1054A518B10330B435383D369002B50
S11306E0FCD170470004004000080042F0B54746C2
S11306F080B452001A4B5A621C000122237E13421A
S1130700FCD0174B5B8B5B0705D5154A5368C02497
S1130710A40223435360002918DD0025104A28272A
S1130720012404239846C0239B029C46435DD35571
S1130730137E2342FCD0538B4646334203D0536886
S113074066463343536001358D42EFDB044A5368F8
S1130750C02189020B43536004BC9046F0BDC046DF
S113076000080042F0B5520001231A431B4B5A62A1
S11307701C000222237E1342FCD0184B5B8B5B07C8
S113078005D5164A5368C024A40223435360134A70
S11307905468134B234053604E1E002E0ADD00257F
S11307A028270224D35D4355137E2342FCD0013510
S11307B0B542F7DB00290FD0084B5A688024E402C5
S11307C022435A605A68C024A40222435A60282251
S11307D09B5C401801380370F0BDC046000800421D
S11307E0FFFFFBFF044B802252011A608022D202D9
S11307F01A6010221A60704700E100E070B584B0FE
S11308001D4B98471D4B984701221D4B1A701C0025
S11308101C4E1D4D2378DBB2012B02D0022B27D0B6
S1130820F8E7B04735230293213B0193043B00933F
S11308300C3B242203211720A8474020134B984740
S1130840134B9847134B9847134B9847134B9847B0
S1130850134B9847134B9847134B9847134B9847A0
S1130860134B9847134B98470222054B1A70D1E754
S1130870114B9847CEE7C04685060000E507000007
S1130880C60400202D0A000029030000890300008B
S1130890B5010000B1030000C9010000D903000044
S11308A0F1010000210400000502000049040000D9
S11308B0DD01000001040000390C000030B5274BB5
S11308C04820195C0122114319540130195C114369
S11308D019542738342158545624195D1143195595
S11308E00134195D114319553B215854AC30195C3E
S11308F01143195417381C5C0721214319541968F2
S11309008020C000014319609969802000020143DE
S113091099614F21585C10435854585C0224204379
S113092058545D5C042005435D543725595DC9B2B4
S113093059554B215D5C2A435A545A5C14435C5408
S11309405A5C1043585416395A5CD2B25A54F8239C
S1130950034A1360034A136030BDC046004400419B
S113096008440041144400410B4A116A0B4B0B40EC
S113097013620B4B0B4A5A600B4A5A600B4A5A805B
S11309800B4A5A800B4A5A800B4A5A801A005378F1
S1130990DB09FCD17047C04600080040FFFCFFFFA4
S11309A0000C00400006090001030100144000008F
S11309B0174000001B40000005410000174A9169E0
S11309C040230B439361164A117801230B431370A0
S11309D05378DB09012BFBD0114B5A6980210901A3
S11309E00A435A61D9690F4A0A40802149010A43DE
S11309F0DA61D9690C4A0A40DA61197802220A4399
S1130A001A701A005378DB09012BFBD0044AD3680F
S1130A10802109010B43D3607047C04600040040A5
S1130A2000180040FF8FFFFFFF7FFFFF10B5084B4A
S1130A309847084B9847084B9847084B9847084BEA
S1130A409847084B9847084B9847002010BDC0466C
S1130A50BD08000069090000BD090000DD0B0000AD
S1130A6095060000E90C000065010000F0B547465A
S1130A7080B404000D00002806DA2D230B704442D4
S1130A8024B2013AD2B20135042A2CD1261C4D4B92
S1130A909C4201DD4C4B1E8834B2FA2189002000AF
S1130AA04A4B984700B2C3B22B70002B5FD0FF2291
S1130AB01040474C6043861934B230332B70002306
S1130AC098466F1C261C434B9C4201DD424B1E88FA
S1130AD036B2642130003D4B984700B2C3B26B700C
S1130AE0002B04D10BE0032A23D145E02F00FF2281
S1130AF01040643AFF3A5043861936B205E0424644
S1130B00002A02D020233B7003E030333B700023E3
S1130B1098467D1C341C632E00DD632424B20A2114
S1130B2020002A4B984700B2C3B27B70002B03D13C
S1130B300AE0022A12D133E0FF2210400A3AFF3AB7
S1130B405043041924B205E04246002A02D020236F
S1130B502B7001E030332B70013501E0012A2ED1D6
S1130B60231C092C00DD092330332B7027E02023BC
S1130B702B701F3B9846A4E7261C164B9C4201DDB4
S1130B80154B1E8836B264213000104B984700B2D2
S1130B90C3B22B70002BA9D12F0001339846B1E7C3
S1130BA0231C632C00DD63231CB20A212000074BA5
S1130BB0984700B2C3B22B70002BBDD1C7E704BC69
S1130BC09046F0BD0F2700004C140000FD100000FB
S1130BD018FCFFFFE70300004E140000114A136ADB
S1130BE0802109010B43136200230F4A13800F4A2B
S1130BF013800F4B1A8892B21A80198880225200EF
S1130C000A431A80597B10220A435A73094A1A83E9
S1130C10198802220A431A801A00D37BDB09012BAC
S1130C20FBD0704700040040520400205A04002006
S1130C30002C0042409CFFFF10B5154B1B889BB253
S1130C40144A12889A4221D0114B1A88114B1A80E7
S1130C50114B9847022806D10E4B01225A801B885B
S1130C600A2B08D012E00B4B1B880A2B0ED1094B20
S1130C705B88002B0AD00022064B5A80074A116970
S1130C8004230B431361BFF34F8F30BF002010BD0B
S1130C90520400204C0400202D0F000000ED00E061
S1130CA00E4B9B7BDB0617D50C4B997B10220A431A
S1130CB09A7300221A820A4A138801339BB2138062
S1130CC013889BB2642B07D10022054B1A80054A76
S1130CD0138801339BB213807047C046002C004236
S1130CE0520400205A040020134A116A20230B43A3
S1130CF01362124B1A6802218A431A601A68104957
S1130D000A431A6099890F4A0A439A815A68C02192
S1130D1089020A435A601A00D369002BFCD1074B9D
S1130D2004229A751968023A0A431A601A00D369B0
S1130D309B07FCD47047C0460004004000140042E6
S1130D400400104004C5000010B589B200290DD07C
S1130D500400013989B201314018054A137EDB07CA
S1130D60FCD52378138501348442F7D110BDC046E5
S1130D70001400420F490B78DBB20F4A108D0F4A62
S1130D80D0540B78DBB2D35C0D2B0AD10A000B785C
S1130D90DBB200210948C15411700122084B1A70BA
S1130DA007E0044A13780133DBB213700022044BCA
S1130DB01A707047E504002000140042600400200B
S1130DC05604002010B5354B1B881BB2642B49D048
S1130DD007DC1A000A3214D0052B3FD014335CD13F
S1130DE038E09622520093424CD002DCC82B41D00A
S1130DF053E0C8225200934248D06432934249D00F
S1130E004BE0274B1B78DBB20A2B1FD89B00254AEB
S1130E10D3589F460922224B1A703EE00B22204BE6
S1130E201A703AE00C221E4B1A7036E00D221C4B4D
S1130E301A7032E00E221A4B1A702EE00F22184B51
S1130E401A702AE01022164B1A7026E00122144B65
S1130E501A7022E00122124B1A701EE00222104B7B
S1130E601A701AE003220E4B1A7004210E480F4B1D
S1130E70984712E004220A4B1A7004210C480B4BC9
S1130E8098470AE00522064B1A7006E00622044B36
S1130E901A7002E00722024B1A7010BD5804002099
S1130EA0E0040020501400007C140000490D0000F0
S1130EB084140000002818D04B00194A9B5A1BB216
S1130EC00A3304DA49000122154BCA5226E04B00CA
S1130ED0134A9B5A1BB2134A93421FDC104A49001F
S1130EE08B5A01331BB28B5218E04B000C4A9B5AAD
S1130EF01BB2002B05DD490001225242084BCA52A5
S1130F000CE04B00064A9B5A1BB2074A934205DB8E
S1130F10034A49008B5A013B1BB28B527047C046AF
S1130F20580400202F750000D18AFFFF10B5144B20
S1130F30186AC00B0123584018400021114B9847F0
S1130F40114B9847114B1B78092B0AD101220F4BE7
S1130F501A700F4B984711210E480F4B98470120E8
S1130F600CE00A4B1B7801200C2B07D10122074B04
S1130F701A7005210948084B9847022010BDC04645
S1130F8000440041B50E0000C50D0000E00400203F
S1130F9071040000CC040020490D00008C140000F2
S1130FA010B50C4B1B691B0512D50A4A1369802125
S1130FB009010B43136113691B05FCD400210F20A5
S1130FC0054B9847054B984711210548054B984711
S1130FD010BDC04600180040450100007104000027
S1130FE0CC040020490D0000002243088B4274D336
S1130FF003098B425FD3030A8B4244D3030B8B4216
S113100028D3030C8B420DD3FF22090212BA030C1E
S11310108B4202D31212090265D0030B8B4219D3FF
S113102000E0090AC30B8B4201D3CB03C01A52411F
S1131030830B8B4201D38B03C01A5241430B8B4267
S113104001D34B03C01A5241030B8B4201D30B0350
S1131050C01A5241C30A8B4201D3CB02C01A524177
S1131060830A8B4201D38B02C01A5241430A8B423A
S113107001D34B02C01A5241030A8B4201D30B0223
S1131080C01A5241CDD2C3098B4201D3CB01C01A3D
S1131090524183098B4201D38B01C01A5241430947
S11310A08B4201D34B01C01A524103098B4201D335
S11310B00B01C01A5241C3088B4201D3CB00C01AA2
S11310C0524183088B4201D38B00C01A524143081A
S11310D08B4201D34B00C01A5241411A00D201463F
S11310E0524110467047FFE701B5002000F0F0F8C8
S11310F002BDC0460029F7D076E7704703460B438C
S11311007FD4002243088B4274D303098B425FD3FC
S1131110030A8B4244D3030B8B4228D3030C8B4228
S11311200DD3FF22090212BA030C8B4202D312120E
S1131130090265D0030B8B4219D300E0090AC30BE3
S11311408B4201D3CB03C01A5241830B8B4201D390
S11311508B03C01A5241430B8B4201D34B03C01A79
S11311605241030B8B4201D30B03C01A5241C30AF1
S11311708B4201D3CB02C01A5241830A8B4201D362
S11311808B02C01A5241430A8B4201D34B02C01A4C
S11311905241030A8B4201D30B02C01A5241CDD2F1
S11311A0C3098B4201D3CB01C01A524183098B423C
S11311B001D38B01C01A524143098B4201D34B0125
S11311C0C01A524103098B4201D30B01C01A524188
S11311D0C3088B4201D3CB00C01A524183088B420F
S11311E001D38B00C01A524143088B4201D34B00F8
S11311F0C01A5241411A00D201465241104670476A
S11312005DE0CA0F00D04942031000D3404253406E
S113121000229C4603098B422DD3030A8B4212D32E
S1131220FC22890112BA030A8B420CD38901921160
S11312308B4208D3890192118B4204D389013AD09D
S1131240921100E08909C3098B4201D3CB01C01A72
S1131250524183098B4201D38B01C01A5241430985
S11312608B4201D34B01C01A524103098B4201D373
S11312700B01C01A5241C3088B4201D3CB00C01AE0
S1131280524183088B4201D38B00C01A5241D9D2F8
S113129043088B4201D34B00C01A5241411A00D279
S11312A00146634652415B10104601D34042002B75
S11312B000D54942704763465B1000D3404201B5F4
S11312C0002000F005F802BD0029F8D016E77047A9
S11312D07047C04670B50D4E0D4D0024AD1BAD10CA
S11312E005D0A300F35801349847A542F9D100F082
S11312F0D5F8084E084D0024AD1BAD1005D0A30051
S1131300F35801349847A542F9D170BDA8140000E0
S1131310A8140000A8140000B0140000034B10B57A
S1131320002B02D0024800F005F810BD00000000B8
S11313304513000010B5010000230022002000F036
S11313401BF810BD70B5094B094CE41AA41009D060
S1131350084AA518AD00ED182B68013C9847043DD8
S1131360002CF9D100F0A4F870BDC046BC140000F4
S1131370C0140000FFFFFF3FF8B544465F465646E1
S11313804D469B462F4BF0B41C68A4235B0005001C
S1131390E0580E00904600284BD043681F2B0DDC0C
S11313A05C1C002D21D102339B0044601E500020A0
S11313B03CBC90469946A246AB46F8BD224B002B56
S11313C03CD0C820400000E000BF002836D0A42252
S11313D000235200A15843600160A0504032835062
S11313E0043283500124002DDDD09A0091468144BB
S11313F0424688214F467A50C42252009046804487
S113140042468739994012688A460A4394464246BE
S113141061461160842249465F4652008F50022D76
S1131420C1D1020055468D32FF3211680D4315605B
S1131430B9E720004D30FF30E050AEE701204042D4
S1131440B6E7C04698140000000000000F27E70329
S11314504C0E00004C0E0000140E00001C0E000088
S1131460240E00002C0E0000340E00003C0E000080
S1131470440E00004C0E0000140E00003153454B86
S1131480000000003253454B00000000534C45451A
S1131490500000004300000008000020F8B5C046DA
S11314A0F8BC08BC9E4670471D130000DD00000018
S11314B0F8B5C046F8BC08BC9E467047B5000000AD
S11314C040420F000000000000000000F402002071
S11314D05C030020C40300200000000000000000A2
S11314E000000000000000000000000000000000F8
S11314F00000000000000000000000009414000040
S113150000000000000000000000000000000000D7
S113151000000000000000000000000000000000C7
S113152000000000000000000000000000000000B7
S113153000000000000000000000000000000000A7
S11315400000000000000000000000000000000097
S11315500000000000000000000000000000000087
S11315600000000000000000000000000000000077
S113157001000000000000000E33CDAB34126DE614
S1131580ECDE05000B00000000000000000000007D
S11315900000000000000000000000000000000047
S11315A00000000000000000000000000000000037
S11315B00000000000000000000000000000000027
S11315C00000000000000000000000000000000017
S9030000FC
